{
  "contractName": "BeaverMoon",
  "abi": [
    {
      "anonymous": false,
      "inputs": [
        {
          "indexed": true,
          "internalType": "address",
          "name": "owner",
          "type": "address"
        },
        {
          "indexed": true,
          "internalType": "address",
          "name": "spender",
          "type": "address"
        },
        {
          "indexed": false,
          "internalType": "uint256",
          "name": "value",
          "type": "uint256"
        }
      ],
      "name": "Approval",
      "type": "event"
    },
    {
      "anonymous": false,
      "inputs": [
        {
          "indexed": true,
          "internalType": "address",
          "name": "from",
          "type": "address"
        },
        {
          "indexed": true,
          "internalType": "address",
          "name": "to",
          "type": "address"
        },
        {
          "indexed": false,
          "internalType": "uint256",
          "name": "value",
          "type": "uint256"
        }
      ],
      "name": "Transfer",
      "type": "event"
    },
    {
      "inputs": [],
      "name": "totalSupply",
      "outputs": [
        {
          "internalType": "uint256",
          "name": "",
          "type": "uint256"
        }
      ],
      "stateMutability": "view",
      "type": "function"
    },
    {
      "inputs": [
        {
          "internalType": "address",
          "name": "account",
          "type": "address"
        }
      ],
      "name": "balanceOf",
      "outputs": [
        {
          "internalType": "uint256",
          "name": "",
          "type": "uint256"
        }
      ],
      "stateMutability": "view",
      "type": "function"
    },
    {
      "inputs": [
        {
          "internalType": "address",
          "name": "account",
          "type": "address"
        },
        {
          "internalType": "uint256",
          "name": "amount",
          "type": "uint256"
        }
      ],
      "name": "mint",
      "outputs": [],
      "stateMutability": "nonpayable",
      "type": "function"
    },
    {
      "inputs": [
        {
          "internalType": "address",
          "name": "to",
          "type": "address"
        },
        {
          "internalType": "uint256",
          "name": "amount",
          "type": "uint256"
        }
      ],
      "name": "transfer",
      "outputs": [
        {
          "internalType": "bool",
          "name": "",
          "type": "bool"
        }
      ],
      "stateMutability": "nonpayable",
      "type": "function"
    },
    {
      "inputs": [
        {
          "internalType": "address",
          "name": "from",
          "type": "address"
        },
        {
          "internalType": "address",
          "name": "to",
          "type": "address"
        },
        {
          "internalType": "uint256",
          "name": "amount",
          "type": "uint256"
        }
      ],
      "name": "transferFrom",
      "outputs": [
        {
          "internalType": "bool",
          "name": "",
          "type": "bool"
        }
      ],
      "stateMutability": "nonpayable",
      "type": "function"
    },
    {
      "inputs": [
        {
          "internalType": "address",
          "name": "owner",
          "type": "address"
        },
        {
          "internalType": "address",
          "name": "spender",
          "type": "address"
        }
      ],
      "name": "allowance",
      "outputs": [
        {
          "internalType": "uint256",
          "name": "",
          "type": "uint256"
        }
      ],
      "stateMutability": "view",
      "type": "function"
    },
    {
      "inputs": [
        {
          "internalType": "address",
          "name": "spender",
          "type": "address"
        },
        {
          "internalType": "uint256",
          "name": "amount",
          "type": "uint256"
        }
      ],
      "name": "approve",
      "outputs": [
        {
          "internalType": "bool",
          "name": "",
          "type": "bool"
        }
      ],
      "stateMutability": "nonpayable",
      "type": "function"
    }
  ],
  "bytecode": "0x608060405234801561001057600080fd5b50610714806100206000396000f3fe608060405234801561001057600080fd5b506004361061007d5760003560e01c806340c10f191161005b57806340c10f191461010057806370a082311461011c578063a9059cbb1461014c578063dd62ed3e1461017c5761007d565b8063095ea7b31461008257806318160ddd146100b257806323b872dd146100d0575b600080fd5b61009c600480360381019061009791906104c5565b6101ac565b6040516100a99190610520565b60405180910390f35b6100ba6101b4565b6040516100c7919061054a565b60405180910390f35b6100ea60048036038101906100e59190610565565b6101bd565b6040516100f79190610520565b60405180910390f35b61011a600480360381019061011591906104c5565b6101d3565b005b610136600480360381019061013191906105b8565b610245565b604051610143919061054a565b60405180910390f35b610166600480360381019061016191906104c5565b61028e565b6040516101739190610520565b60405180910390f35b610196600480360381019061019191906105e5565b6102a3565b6040516101a3919061054a565b60405180910390f35b600092915050565b60008054905090565b60006101ca8484846102ab565b90509392505050565b80600160008473ffffffffffffffffffffffffffffffffffffffff1673ffffffffffffffffffffffffffffffffffffffff16815260200190815260200160002060008282546102229190610654565b925050819055508060008082825461023a9190610654565b925050819055505050565b6000600160008373ffffffffffffffffffffffffffffffffffffffff1673ffffffffffffffffffffffffffffffffffffffff168152602001908152602001600020549050919050565b600061029b3384846102ab565b905092915050565b600092915050565b60008082116102b957600080fd5b81600160008673ffffffffffffffffffffffffffffffffffffffff1673ffffffffffffffffffffffffffffffffffffffff168152602001908152602001600020541161030457600080fd5b8273ffffffffffffffffffffffffffffffffffffffff168473ffffffffffffffffffffffffffffffffffffffff16141561033d57600080fd5b3373ffffffffffffffffffffffffffffffffffffffff168473ffffffffffffffffffffffffffffffffffffffff161461037557600080fd5b81600160008673ffffffffffffffffffffffffffffffffffffffff1673ffffffffffffffffffffffffffffffffffffffff16815260200190815260200160002060008282546103c491906106aa565b9250508190555081600160008573ffffffffffffffffffffffffffffffffffffffff1673ffffffffffffffffffffffffffffffffffffffff168152602001908152602001600020600082825461041a9190610654565b92505081905550600190509392505050565b600080fd5b600073ffffffffffffffffffffffffffffffffffffffff82169050919050565b600061045c82610431565b9050919050565b61046c81610451565b811461047757600080fd5b50565b60008135905061048981610463565b92915050565b6000819050919050565b6104a28161048f565b81146104ad57600080fd5b50565b6000813590506104bf81610499565b92915050565b600080604083850312156104dc576104db61042c565b5b60006104ea8582860161047a565b92505060206104fb858286016104b0565b9150509250929050565b60008115159050919050565b61051a81610505565b82525050565b60006020820190506105356000830184610511565b92915050565b6105448161048f565b82525050565b600060208201905061055f600083018461053b565b92915050565b60008060006060848603121561057e5761057d61042c565b5b600061058c8682870161047a565b935050602061059d8682870161047a565b92505060406105ae868287016104b0565b9150509250925092565b6000602082840312156105ce576105cd61042c565b5b60006105dc8482850161047a565b91505092915050565b600080604083850312156105fc576105fb61042c565b5b600061060a8582860161047a565b925050602061061b8582860161047a565b9150509250929050565b7f4e487b7100000000000000000000000000000000000000000000000000000000600052601160045260246000fd5b600061065f8261048f565b915061066a8361048f565b9250827fffffffffffffffffffffffffffffffffffffffffffffffffffffffffffffffff0382111561069f5761069e610625565b5b828201905092915050565b60006106b58261048f565b91506106c08361048f565b9250828210156106d3576106d2610625565b5b82820390509291505056fea2646970667358221220ae4fbd7bfcdd051522064b3d6e10d50acbddd61f2e047faf6da32f556ad0237364736f6c634300080c0033",
  "immutableReferences": {},
  "source": "// SPDX-License-Identifier: MIT\npragma solidity >=0.4.22 <0.9.0;\n\nimport './IERC20.sol';\n\ncontract BeaverMoon is IERC20 {\n  uint256 private _totalSupply;\n  mapping(address => uint256) private _balaces;\n\n  function totalSupply() external view returns (uint256) {\n    return _totalSupply;\n  }\n\n\n  function balanceOf(address account) external view returns (uint256) {\n    return _balaces[account];\n  }\n\n  function mint(address account , uint256 amount) public {\n    _balaces[account] += amount;\n    _totalSupply += amount;\n  }\n\n  function _mainTransfer(address from, address to, uint256 amount) private returns (bool) {\n    require(amount > 0);\n    require(_balaces[from] > amount);\n    require(from != to);\n    require(from == msg.sender);\n\n    _balaces[from] -= amount;\n    _balaces[to] += amount;\n\n    return true;\n  }\n\n\n\n\n\n  function transfer(address to, uint256 amount) external returns (bool) {\n    return _mainTransfer(msg.sender, to, amount);\n  }\n\n  function transferFrom(\n      address from,\n      address to,\n      uint256 amount\n  ) external returns (bool) {\n    return _mainTransfer(from, to, amount);\n  }\n\n\n\n\n\n  // Allowance is over our pay-grade ... :) (out of scope)\n\n  function allowance(address owner, address spender) external view returns (uint256) {\n    return 0;\n  }\n\n  function approve(address spender, uint256 amount) external returns (bool) {\n    return false;\n  }\n}\n",
  "sourcePath": "/home/pavel/git/beavercodes/notes/reflection/contracts/BeaverMoon.sol",
  "compiler": {
    "name": "solc",
    "version": "0.8.12+commit.f00d7308.Emscripten.clang"
  },
  "schemaVersion": "3.4.5",
  "updatedAt": "2022-08-15T08:01:45.411Z",
  "devdoc": {
    "kind": "dev",
    "methods": {
      "allowance(address,address)": {
        "details": "Returns the remaining number of tokens that `spender` will be allowed to spend on behalf of `owner` through {transferFrom}. This is zero by default. This value changes when {approve} or {transferFrom} are called."
      },
      "approve(address,uint256)": {
        "details": "Sets `amount` as the allowance of `spender` over the caller's tokens. Returns a boolean value indicating whether the operation succeeded. IMPORTANT: Beware that changing an allowance with this method brings the risk that someone may use both the old and the new allowance by unfortunate transaction ordering. One possible solution to mitigate this race condition is to first reduce the spender's allowance to 0 and set the desired value afterwards: https://github.com/ethereum/EIPs/issues/20#issuecomment-263524729 Emits an {Approval} event."
      },
      "balanceOf(address)": {
        "details": "Returns the amount of tokens owned by `account`."
      },
      "totalSupply()": {
        "details": "Returns the amount of tokens in existence."
      },
      "transfer(address,uint256)": {
        "details": "Moves `amount` tokens from the caller's account to `to`. Returns a boolean value indicating whether the operation succeeded. Emits a {Transfer} event."
      },
      "transferFrom(address,address,uint256)": {
        "details": "Moves `amount` tokens from `from` to `to` using the allowance mechanism. `amount` is then deducted from the caller's allowance. Returns a boolean value indicating whether the operation succeeded. Emits a {Transfer} event."
      }
    },
    "version": 1
  },
  "userdoc": {
    "kind": "user",
    "methods": {},
    "version": 1
  }
}